{
  "_format": "hh-sol-artifact-1",
  "contractName": "Marketplace",
  "sourceName": "contracts/Marketplace.sol",
  "abi": [
    {
      "anonymous": false,
      "inputs": [
        {
          "indexed": true,
          "internalType": "uint256",
          "name": "marketplaceId",
          "type": "uint256"
        },
        {
          "indexed": true,
          "internalType": "address",
          "name": "nftAddress",
          "type": "address"
        },
        {
          "indexed": true,
          "internalType": "uint256",
          "name": "tokenId",
          "type": "uint256"
        },
        {
          "indexed": false,
          "internalType": "address",
          "name": "seller",
          "type": "address"
        },
        {
          "indexed": false,
          "internalType": "address",
          "name": "owner",
          "type": "address"
        },
        {
          "indexed": false,
          "internalType": "uint256",
          "name": "listPrice",
          "type": "uint256"
        },
        {
          "indexed": false,
          "internalType": "address",
          "name": "erc20Address",
          "type": "address"
        },
        {
          "indexed": false,
          "internalType": "string",
          "name": "uri",
          "type": "string"
        }
      ],
      "name": "ListingCreated",
      "type": "event"
    },
    {
      "inputs": [
        {
          "internalType": "uint256",
          "name": "marketplaceItemId",
          "type": "uint256"
        }
      ],
      "name": "buyListing",
      "outputs": [],
      "stateMutability": "payable",
      "type": "function"
    },
    {
      "inputs": [
        {
          "internalType": "uint256",
          "name": "marketplaceItemId",
          "type": "uint256"
        }
      ],
      "name": "buyListingERC20",
      "outputs": [],
      "stateMutability": "nonpayable",
      "type": "function"
    },
    {
      "inputs": [
        {
          "internalType": "uint256",
          "name": "tokenId",
          "type": "uint256"
        },
        {
          "internalType": "address",
          "name": "nftAddress",
          "type": "address"
        },
        {
          "internalType": "uint256",
          "name": "price",
          "type": "uint256"
        }
      ],
      "name": "createListing",
      "outputs": [],
      "stateMutability": "nonpayable",
      "type": "function"
    },
    {
      "inputs": [
        {
          "internalType": "uint256",
          "name": "tokenId",
          "type": "uint256"
        },
        {
          "internalType": "address",
          "name": "nftAddress",
          "type": "address"
        },
        {
          "internalType": "uint256",
          "name": "price",
          "type": "uint256"
        },
        {
          "internalType": "address",
          "name": "erc20Address",
          "type": "address"
        }
      ],
      "name": "createListingERC20",
      "outputs": [],
      "stateMutability": "nonpayable",
      "type": "function"
    },
    {
      "inputs": [
        {
          "internalType": "uint256",
          "name": "marketplaceItemId",
          "type": "uint256"
        }
      ],
      "name": "getMarketItem",
      "outputs": [
        {
          "components": [
            {
              "internalType": "uint256",
              "name": "marketplaceId",
              "type": "uint256"
            },
            {
              "internalType": "address",
              "name": "nftAddress",
              "type": "address"
            },
            {
              "internalType": "uint256",
              "name": "tokenId",
              "type": "uint256"
            },
            {
              "internalType": "address payable",
              "name": "seller",
              "type": "address"
            },
            {
              "internalType": "address payable",
              "name": "owner",
              "type": "address"
            },
            {
              "internalType": "uint256",
              "name": "listPrice",
              "type": "uint256"
            },
            {
              "internalType": "address",
              "name": "erc20Address",
              "type": "address"
            },
            {
              "internalType": "string",
              "name": "uri",
              "type": "string"
            }
          ],
          "internalType": "struct Marketplace.Listing",
          "name": "",
          "type": "tuple"
        }
      ],
      "stateMutability": "view",
      "type": "function"
    },
    {
      "inputs": [],
      "name": "getMarketplaceItemIds",
      "outputs": [
        {
          "internalType": "uint256[]",
          "name": "",
          "type": "uint256[]"
        }
      ],
      "stateMutability": "view",
      "type": "function"
    },
    {
      "inputs": [],
      "name": "getTotalItemsListed",
      "outputs": [
        {
          "internalType": "uint256",
          "name": "",
          "type": "uint256"
        }
      ],
      "stateMutability": "view",
      "type": "function"
    },
    {
      "inputs": [],
      "name": "getTotalItemsSold",
      "outputs": [
        {
          "internalType": "uint256",
          "name": "",
          "type": "uint256"
        }
      ],
      "stateMutability": "view",
      "type": "function"
    }
  ],
  "bytecode": "0x608060405234801561001057600080fd5b50611ccd806100206000396000f3fe60806040526004361061007b5760003560e01c8063877bf83d1161004e578063877bf83d14610119578063ba20109414610144578063c7be7a491461016d578063e8203cdf146101aa5761007b565b80630198b5ef146100805780634884f459146100a95780636314847c146100c557806365c11bf0146100f0575b600080fd5b34801561008c57600080fd5b506100a760048036038101906100a29190610ec9565b6101d5565b005b6100c360048036038101906100be9190610ec9565b61030b565b005b3480156100d157600080fd5b506100da610433565b6040516100e79190610fb4565b60405180910390f35b3480156100fc57600080fd5b5061011760048036038101906101129190611034565b6104da565b005b34801561012557600080fd5b5061012e61054e565b60405161013b9190611096565b60405180910390f35b34801561015057600080fd5b5061016b600480360381019061016691906110b1565b610558565b005b34801561017957600080fd5b50610194600480360381019061018f9190610ec9565b6105cc565b6040516101a19190611288565b60405180910390f35b3480156101b657600080fd5b506101bf610802565b6040516101cc9190611096565b60405180910390f35b60006002600083815260200190815260200160002090506000816005015490508160060160009054906101000a900473ffffffffffffffffffffffffffffffffffffffff1673ffffffffffffffffffffffffffffffffffffffff166323b872dd3330846040518463ffffffff1660e01b8152600401610256939291906112b9565b6020604051808303816000875af1158015610275573d6000803e3d6000fd5b505050506040513d601f19601f820116820180604052508101906102999190611328565b6102d8576040517f08c379a00000000000000000000000000000000000000000000000000000000081526004016102cf906113b2565b60405180910390fd5b610306838360010160009054906101000a900473ffffffffffffffffffffffffffffffffffffffff1661080b565b505050565b600060026000838152602001908152602001600020905060008160050154905080341461036d576040517f08c379a000000000000000000000000000000000000000000000000000000000815260040161036490611444565b60405180910390fd5b600073ffffffffffffffffffffffffffffffffffffffff168260060160009054906101000a900473ffffffffffffffffffffffffffffffffffffffff1673ffffffffffffffffffffffffffffffffffffffff1614610400576040517f08c379a00000000000000000000000000000000000000000000000000000000081526004016103f7906114b0565b60405180910390fd5b61042e838360010160009054906101000a900473ffffffffffffffffffffffffffffffffffffffff1661080b565b505050565b60606000805467ffffffffffffffff811115610452576104516114d0565b5b6040519080825280602002602001820160405280156104805781602001602082028036833780820191505090505b5090506000600190505b60005481116104d25780826001836104a2919061152e565b815181106104b3576104b2611562565b5b60200260200101818152505080806104ca90611591565b91505061048a565b508091505090565b806000811161051e576040517f08c379a00000000000000000000000000000000000000000000000000000000081526004016105159061164b565b60405180910390fd5b6000806000815461052e90611591565b9190508190559050610547818686336000886000610a96565b5050505050565b6000600154905090565b816000811161059c576040517f08c379a00000000000000000000000000000000000000000000000000000000081526004016105939061164b565b60405180910390fd5b600080600081546105ac90611591565b91905081905590506105c48187873360008989610a96565b505050505050565b6105d4610de2565b6002600083815260200190815260200160002060405180610100016040529081600082015481526020016001820160009054906101000a900473ffffffffffffffffffffffffffffffffffffffff1673ffffffffffffffffffffffffffffffffffffffff1673ffffffffffffffffffffffffffffffffffffffff168152602001600282015481526020016003820160009054906101000a900473ffffffffffffffffffffffffffffffffffffffff1673ffffffffffffffffffffffffffffffffffffffff1673ffffffffffffffffffffffffffffffffffffffff1681526020016004820160009054906101000a900473ffffffffffffffffffffffffffffffffffffffff1673ffffffffffffffffffffffffffffffffffffffff1673ffffffffffffffffffffffffffffffffffffffff168152602001600582015481526020016006820160009054906101000a900473ffffffffffffffffffffffffffffffffffffffff1673ffffffffffffffffffffffffffffffffffffffff1673ffffffffffffffffffffffffffffffffffffffff1681526020016007820180546107799061169a565b80601f01602080910402602001604051908101604052809291908181526020018280546107a59061169a565b80156107f25780601f106107c7576101008083540402835291602001916107f2565b820191906000526020600020905b8154815290600101906020018083116107d557829003601f168201915b5050505050815250509050919050565b60008054905090565b600060026000848152602001908152602001600020905060008160020154905060008260030160009054906101000a900473ffffffffffffffffffffffffffffffffffffffff16905060008360060160009054906101000a900473ffffffffffffffffffffffffffffffffffffffff169050600073ffffffffffffffffffffffffffffffffffffffff168173ffffffffffffffffffffffffffffffffffffffff1614610977578073ffffffffffffffffffffffffffffffffffffffff1663a9059cbb8386600501546040518363ffffffff1660e01b81526004016108f092919061172a565b6020604051808303816000875af115801561090f573d6000803e3d6000fd5b505050506040513d601f19601f820116820180604052508101906109339190611328565b610972576040517f08c379a0000000000000000000000000000000000000000000000000000000008152600401610969906117c5565b60405180910390fd5b6109c3565b8173ffffffffffffffffffffffffffffffffffffffff166108fc85600501549081150290604051600060405180830381858888f193505050501580156109c1573d6000803e3d6000fd5b505b8473ffffffffffffffffffffffffffffffffffffffff166323b872dd3033866040518463ffffffff1660e01b8152600401610a00939291906112b9565b600060405180830381600087803b158015610a1a57600080fd5b505af1158015610a2e573d6000803e3d6000fd5b50505050338460040160006101000a81548173ffffffffffffffffffffffffffffffffffffffff021916908373ffffffffffffffffffffffffffffffffffffffff1602179055506001806000828254610a8791906117e5565b92505081905550505050505050565b60008573ffffffffffffffffffffffffffffffffffffffff1663c87b56dd886040518263ffffffff1660e01b8152600401610ad19190611096565b600060405180830381865afa158015610aee573d6000803e3d6000fd5b505050506040513d6000823e3d601f19601f82011682018060405250810190610b179190611910565b90506040518061010001604052808981526020018773ffffffffffffffffffffffffffffffffffffffff1681526020018881526020018673ffffffffffffffffffffffffffffffffffffffff1681526020018573ffffffffffffffffffffffffffffffffffffffff1681526020018481526020018373ffffffffffffffffffffffffffffffffffffffff16815260200182815250600260008a81526020019081526020016000206000820151816000015560208201518160010160006101000a81548173ffffffffffffffffffffffffffffffffffffffff021916908373ffffffffffffffffffffffffffffffffffffffff1602179055506040820151816002015560608201518160030160006101000a81548173ffffffffffffffffffffffffffffffffffffffff021916908373ffffffffffffffffffffffffffffffffffffffff16021790555060808201518160040160006101000a81548173ffffffffffffffffffffffffffffffffffffffff021916908373ffffffffffffffffffffffffffffffffffffffff16021790555060a0820151816005015560c08201518160060160006101000a81548173ffffffffffffffffffffffffffffffffffffffff021916908373ffffffffffffffffffffffffffffffffffffffff16021790555060e0820151816007019081610d0d9190611afb565b509050508573ffffffffffffffffffffffffffffffffffffffff166323b872dd86308a6040518463ffffffff1660e01b8152600401610d4e93929190611bcd565b600060405180830381600087803b158015610d6857600080fd5b505af1158015610d7c573d6000803e3d6000fd5b50505050868673ffffffffffffffffffffffffffffffffffffffff16897f73a09f36bbad426ae9f50d9ecfa27b89a83363b5fd1af027e96ff08666489c9c8888888888604051610dd0959493929190611c3d565b60405180910390a45050505050505050565b60405180610100016040528060008152602001600073ffffffffffffffffffffffffffffffffffffffff16815260200160008152602001600073ffffffffffffffffffffffffffffffffffffffff168152602001600073ffffffffffffffffffffffffffffffffffffffff16815260200160008152602001600073ffffffffffffffffffffffffffffffffffffffff168152602001606081525090565b6000604051905090565b600080fd5b600080fd5b6000819050919050565b610ea681610e93565b8114610eb157600080fd5b50565b600081359050610ec381610e9d565b92915050565b600060208284031215610edf57610ede610e89565b5b6000610eed84828501610eb4565b91505092915050565b600081519050919050565b600082825260208201905092915050565b6000819050602082019050919050565b610f2b81610e93565b82525050565b6000610f3d8383610f22565b60208301905092915050565b6000602082019050919050565b6000610f6182610ef6565b610f6b8185610f01565b9350610f7683610f12565b8060005b83811015610fa7578151610f8e8882610f31565b9750610f9983610f49565b925050600181019050610f7a565b5085935050505092915050565b60006020820190508181036000830152610fce8184610f56565b905092915050565b600073ffffffffffffffffffffffffffffffffffffffff82169050919050565b600061100182610fd6565b9050919050565b61101181610ff6565b811461101c57600080fd5b50565b60008135905061102e81611008565b92915050565b60008060006060848603121561104d5761104c610e89565b5b600061105b86828701610eb4565b935050602061106c8682870161101f565b925050604061107d86828701610eb4565b9150509250925092565b61109081610e93565b82525050565b60006020820190506110ab6000830184611087565b92915050565b600080600080608085870312156110cb576110ca610e89565b5b60006110d987828801610eb4565b94505060206110ea8782880161101f565b93505060406110fb87828801610eb4565b925050606061110c8782880161101f565b91505092959194509250565b61112181610ff6565b82525050565b600061113282610fd6565b9050919050565b61114281611127565b82525050565b600081519050919050565b600082825260208201905092915050565b60005b83811015611182578082015181840152602081019050611167565b60008484015250505050565b6000601f19601f8301169050919050565b60006111aa82611148565b6111b48185611153565b93506111c4818560208601611164565b6111cd8161118e565b840191505092915050565b6000610100830160008301516111f16000860182610f22565b5060208301516112046020860182611118565b5060408301516112176040860182610f22565b50606083015161122a6060860182611139565b50608083015161123d6080860182611139565b5060a083015161125060a0860182610f22565b5060c083015161126360c0860182611118565b5060e083015184820360e086015261127b828261119f565b9150508091505092915050565b600060208201905081810360008301526112a281846111d8565b905092915050565b6112b381610ff6565b82525050565b60006060820190506112ce60008301866112aa565b6112db60208301856112aa565b6112e86040830184611087565b949350505050565b60008115159050919050565b611305816112f0565b811461131057600080fd5b50565b600081519050611322816112fc565b92915050565b60006020828403121561133e5761133d610e89565b5b600061134c84828501611313565b91505092915050565b600082825260208201905092915050565b7f4661696c656420746f207472616e7366657220455243323020746f6b656e7300600082015250565b600061139c601f83611355565b91506113a782611366565b602082019050919050565b600060208201905081810360008301526113cb8161138f565b9050919050565b7f496e636f72726563742076616c75652073656e7420666f72204e46542070757260008201527f6368617365000000000000000000000000000000000000000000000000000000602082015250565b600061142e602583611355565b9150611439826113d2565b604082019050919050565b6000602082019050818103600083015261145d81611421565b9050919050565b7f57726f6e672066756e6374696f6e000000000000000000000000000000000000600082015250565b600061149a600e83611355565b91506114a582611464565b602082019050919050565b600060208201905081810360008301526114c98161148d565b9050919050565b7f4e487b7100000000000000000000000000000000000000000000000000000000600052604160045260246000fd5b7f4e487b7100000000000000000000000000000000000000000000000000000000600052601160045260246000fd5b600061153982610e93565b915061154483610e93565b925082820390508181111561155c5761155b6114ff565b5b92915050565b7f4e487b7100000000000000000000000000000000000000000000000000000000600052603260045260246000fd5b600061159c82610e93565b91507fffffffffffffffffffffffffffffffffffffffffffffffffffffffffffffffff82036115ce576115cd6114ff565b5b600182019050919050565b7f4c697374207072696365206d7573742062652067726561746572207468616e2060008201527f3000000000000000000000000000000000000000000000000000000000000000602082015250565b6000611635602183611355565b9150611640826115d9565b604082019050919050565b6000602082019050818103600083015261166481611628565b9050919050565b7f4e487b7100000000000000000000000000000000000000000000000000000000600052602260045260246000fd5b600060028204905060018216806116b257607f821691505b6020821081036116c5576116c461166b565b5b50919050565b6000819050919050565b60006116f06116eb6116e684610fd6565b6116cb565b610fd6565b9050919050565b6000611702826116d5565b9050919050565b6000611714826116f7565b9050919050565b61172481611709565b82525050565b600060408201905061173f600083018561171b565b61174c6020830184611087565b9392505050565b7f4661696c656420746f207472616e7366657220455243323020746f6b656e732060008201527f746f2073656c6c65720000000000000000000000000000000000000000000000602082015250565b60006117af602983611355565b91506117ba82611753565b604082019050919050565b600060208201905081810360008301526117de816117a2565b9050919050565b60006117f082610e93565b91506117fb83610e93565b9250828201905080821115611813576118126114ff565b5b92915050565b600080fd5b600080fd5b61182c8261118e565b810181811067ffffffffffffffff8211171561184b5761184a6114d0565b5b80604052505050565b600061185e610e7f565b905061186a8282611823565b919050565b600067ffffffffffffffff82111561188a576118896114d0565b5b6118938261118e565b9050602081019050919050565b60006118b36118ae8461186f565b611854565b9050828152602081018484840111156118cf576118ce61181e565b5b6118da848285611164565b509392505050565b600082601f8301126118f7576118f6611819565b5b81516119078482602086016118a0565b91505092915050565b60006020828403121561192657611925610e89565b5b600082015167ffffffffffffffff81111561194457611943610e8e565b5b611950848285016118e2565b91505092915050565b60008190508160005260206000209050919050565b60006020601f8301049050919050565b600082821b905092915050565b6000600883026119bb7fffffffffffffffffffffffffffffffffffffffffffffffffffffffffffffffff8261197e565b6119c5868361197e565b95508019841693508086168417925050509392505050565b60006119f86119f36119ee84610e93565b6116cb565b610e93565b9050919050565b6000819050919050565b611a12836119dd565b611a26611a1e826119ff565b84845461198b565b825550505050565b600090565b611a3b611a2e565b611a46818484611a09565b505050565b5b81811015611a6a57611a5f600082611a33565b600181019050611a4c565b5050565b601f821115611aaf57611a8081611959565b611a898461196e565b81016020851015611a98578190505b611aac611aa48561196e565b830182611a4b565b50505b505050565b600082821c905092915050565b6000611ad260001984600802611ab4565b1980831691505092915050565b6000611aeb8383611ac1565b9150826002028217905092915050565b611b0482611148565b67ffffffffffffffff811115611b1d57611b1c6114d0565b5b611b27825461169a565b611b32828285611a6e565b600060209050601f831160018114611b655760008415611b53578287015190505b611b5d8582611adf565b865550611bc5565b601f198416611b7386611959565b60005b82811015611b9b57848901518255600182019150602085019450602081019050611b76565b86831015611bb85784890151611bb4601f891682611ac1565b8355505b6001600288020188555050505b505050505050565b6000606082019050611be2600083018661171b565b611bef60208301856112aa565b611bfc6040830184611087565b949350505050565b6000611c0f82611148565b611c198185611355565b9350611c29818560208601611164565b611c328161118e565b840191505092915050565b600060a082019050611c52600083018861171b565b611c5f602083018761171b565b611c6c6040830186611087565b611c7960608301856112aa565b8181036080830152611c8b8184611c04565b9050969550505050505056fea2646970667358221220cc4847a25ee430d624c8d39c5e8f550bb5079c887a2ec722a408cbe8a951305564736f6c63430008140033",
  "linkReferences": {},
  "deployedLinkReferences": {}
}