{
  "_format": "hh-sol-artifact-1",
  "contractName": "Marketplace",
  "sourceName": "contracts/Marketplace.sol",
  "abi": [
    {
      "anonymous": false,
      "inputs": [
        {
          "indexed": true,
          "internalType": "uint256",
          "name": "marketplaceId",
          "type": "uint256"
        },
        {
          "indexed": true,
          "internalType": "address",
          "name": "nftAddress",
          "type": "address"
        },
        {
          "indexed": true,
          "internalType": "uint256",
          "name": "tokenId",
          "type": "uint256"
        },
        {
          "indexed": false,
          "internalType": "address",
          "name": "seller",
          "type": "address"
        },
        {
          "indexed": false,
          "internalType": "address",
          "name": "owner",
          "type": "address"
        },
        {
          "indexed": false,
          "internalType": "uint256",
          "name": "listPrice",
          "type": "uint256"
        },
        {
          "indexed": false,
          "internalType": "address",
          "name": "erc20Address",
          "type": "address"
        }
      ],
      "name": "ListingCreated",
      "type": "event"
    },
    {
      "inputs": [
        {
          "internalType": "uint256",
          "name": "marketplaceItemId",
          "type": "uint256"
        }
      ],
      "name": "buyListing",
      "outputs": [],
      "stateMutability": "payable",
      "type": "function"
    },
    {
      "inputs": [
        {
          "internalType": "uint256",
          "name": "marketplaceItemId",
          "type": "uint256"
        }
      ],
      "name": "buyListingERC20",
      "outputs": [],
      "stateMutability": "nonpayable",
      "type": "function"
    },
    {
      "inputs": [
        {
          "internalType": "uint256",
          "name": "tokenId",
          "type": "uint256"
        },
        {
          "internalType": "address",
          "name": "nftAddress",
          "type": "address"
        },
        {
          "internalType": "uint256",
          "name": "price",
          "type": "uint256"
        }
      ],
      "name": "createListing",
      "outputs": [],
      "stateMutability": "nonpayable",
      "type": "function"
    },
    {
      "inputs": [
        {
          "internalType": "uint256",
          "name": "tokenId",
          "type": "uint256"
        },
        {
          "internalType": "address",
          "name": "nftAddress",
          "type": "address"
        },
        {
          "internalType": "uint256",
          "name": "price",
          "type": "uint256"
        },
        {
          "internalType": "address",
          "name": "erc20Address",
          "type": "address"
        }
      ],
      "name": "createListingERC20",
      "outputs": [],
      "stateMutability": "nonpayable",
      "type": "function"
    },
    {
      "inputs": [
        {
          "internalType": "uint256",
          "name": "marketplaceItemId",
          "type": "uint256"
        }
      ],
      "name": "getMarketItem",
      "outputs": [
        {
          "components": [
            {
              "internalType": "uint256",
              "name": "marketplaceId",
              "type": "uint256"
            },
            {
              "internalType": "address",
              "name": "nftAddress",
              "type": "address"
            },
            {
              "internalType": "uint256",
              "name": "tokenId",
              "type": "uint256"
            },
            {
              "internalType": "address payable",
              "name": "seller",
              "type": "address"
            },
            {
              "internalType": "address payable",
              "name": "owner",
              "type": "address"
            },
            {
              "internalType": "uint256",
              "name": "listPrice",
              "type": "uint256"
            },
            {
              "internalType": "address",
              "name": "erc20Address",
              "type": "address"
            }
          ],
          "internalType": "struct Marketplace.Listing",
          "name": "",
          "type": "tuple"
        }
      ],
      "stateMutability": "view",
      "type": "function"
    },
    {
      "inputs": [],
      "name": "getMarketplaceItemIds",
      "outputs": [
        {
          "internalType": "uint256[]",
          "name": "",
          "type": "uint256[]"
        }
      ],
      "stateMutability": "view",
      "type": "function"
    },
    {
      "inputs": [],
      "name": "getTotalItemsListed",
      "outputs": [
        {
          "internalType": "uint256",
          "name": "",
          "type": "uint256"
        }
      ],
      "stateMutability": "view",
      "type": "function"
    },
    {
      "inputs": [],
      "name": "getTotalItemsSold",
      "outputs": [
        {
          "internalType": "uint256",
          "name": "",
          "type": "uint256"
        }
      ],
      "stateMutability": "view",
      "type": "function"
    }
  ],
  "bytecode": "0x608060405234801561001057600080fd5b50611665806100206000396000f3fe60806040526004361061007b5760003560e01c8063877bf83d1161004e578063877bf83d14610119578063ba20109414610144578063c7be7a491461016d578063e8203cdf146101aa5761007b565b80630198b5ef146100805780634884f459146100a95780636314847c146100c557806365c11bf0146100f0575b600080fd5b34801561008c57600080fd5b506100a760048036038101906100a29190610d7c565b6101d5565b005b6100c360048036038101906100be9190610d7c565b61030b565b005b3480156100d157600080fd5b506100da610433565b6040516100e79190610e67565b60405180910390f35b3480156100fc57600080fd5b5061011760048036038101906101129190610ee7565b6104da565b005b34801561012557600080fd5b5061012e61054e565b60405161013b9190610f49565b60405180910390f35b34801561015057600080fd5b5061016b60048036038101906101669190610f64565b610558565b005b34801561017957600080fd5b50610194600480360381019061018f9190610d7c565b6105cc565b6040516101a19190611089565b60405180910390f35b3480156101b657600080fd5b506101bf61076f565b6040516101cc9190610f49565b60405180910390f35b60006002600083815260200190815260200160002090506000816005015490508160060160009054906101000a900473ffffffffffffffffffffffffffffffffffffffff1673ffffffffffffffffffffffffffffffffffffffff166323b872dd3330846040518463ffffffff1660e01b8152600401610256939291906110b3565b6020604051808303816000875af1158015610275573d6000803e3d6000fd5b505050506040513d601f19601f820116820180604052508101906102999190611122565b6102d8576040517f08c379a00000000000000000000000000000000000000000000000000000000081526004016102cf906111ac565b60405180910390fd5b610306838360010160009054906101000a900473ffffffffffffffffffffffffffffffffffffffff16610778565b505050565b600060026000838152602001908152602001600020905060008160050154905080341461036d576040517f08c379a00000000000000000000000000000000000000000000000000000000081526004016103649061123e565b60405180910390fd5b600073ffffffffffffffffffffffffffffffffffffffff168260060160009054906101000a900473ffffffffffffffffffffffffffffffffffffffff1673ffffffffffffffffffffffffffffffffffffffff1614610400576040517f08c379a00000000000000000000000000000000000000000000000000000000081526004016103f7906112aa565b60405180910390fd5b61042e838360010160009054906101000a900473ffffffffffffffffffffffffffffffffffffffff16610778565b505050565b60606000805467ffffffffffffffff811115610452576104516112ca565b5b6040519080825280602002602001820160405280156104805781602001602082028036833780820191505090505b5090506000600190505b60005481116104d25780826001836104a29190611328565b815181106104b3576104b261135c565b5b60200260200101818152505080806104ca9061138b565b91505061048a565b508091505090565b806000811161051e576040517f08c379a000000000000000000000000000000000000000000000000000000000815260040161051590611445565b60405180910390fd5b6000806000815461052e9061138b565b9190508190559050610547818686336000886000610a03565b5050505050565b6000600154905090565b816000811161059c576040517f08c379a000000000000000000000000000000000000000000000000000000000815260040161059390611445565b60405180910390fd5b600080600081546105ac9061138b565b91905081905590506105c48187873360008989610a03565b505050505050565b6105d4610cac565b600260008381526020019081526020016000206040518060e0016040529081600082015481526020016001820160009054906101000a900473ffffffffffffffffffffffffffffffffffffffff1673ffffffffffffffffffffffffffffffffffffffff1673ffffffffffffffffffffffffffffffffffffffff168152602001600282015481526020016003820160009054906101000a900473ffffffffffffffffffffffffffffffffffffffff1673ffffffffffffffffffffffffffffffffffffffff1673ffffffffffffffffffffffffffffffffffffffff1681526020016004820160009054906101000a900473ffffffffffffffffffffffffffffffffffffffff1673ffffffffffffffffffffffffffffffffffffffff1673ffffffffffffffffffffffffffffffffffffffff168152602001600582015481526020016006820160009054906101000a900473ffffffffffffffffffffffffffffffffffffffff1673ffffffffffffffffffffffffffffffffffffffff1673ffffffffffffffffffffffffffffffffffffffff16815250509050919050565b60008054905090565b600060026000848152602001908152602001600020905060008160020154905060008260030160009054906101000a900473ffffffffffffffffffffffffffffffffffffffff16905060008360060160009054906101000a900473ffffffffffffffffffffffffffffffffffffffff169050600073ffffffffffffffffffffffffffffffffffffffff168173ffffffffffffffffffffffffffffffffffffffff16146108e4578073ffffffffffffffffffffffffffffffffffffffff1663a9059cbb8386600501546040518363ffffffff1660e01b815260040161085d9291906114c4565b6020604051808303816000875af115801561087c573d6000803e3d6000fd5b505050506040513d601f19601f820116820180604052508101906108a09190611122565b6108df576040517f08c379a00000000000000000000000000000000000000000000000000000000081526004016108d69061155f565b60405180910390fd5b610930565b8173ffffffffffffffffffffffffffffffffffffffff166108fc85600501549081150290604051600060405180830381858888f1935050505015801561092e573d6000803e3d6000fd5b505b8473ffffffffffffffffffffffffffffffffffffffff166323b872dd3033866040518463ffffffff1660e01b815260040161096d939291906110b3565b600060405180830381600087803b15801561098757600080fd5b505af115801561099b573d6000803e3d6000fd5b50505050338460040160006101000a81548173ffffffffffffffffffffffffffffffffffffffff021916908373ffffffffffffffffffffffffffffffffffffffff16021790555060018060008282546109f4919061157f565b92505081905550505050505050565b6040518060e001604052808881526020018673ffffffffffffffffffffffffffffffffffffffff1681526020018781526020018573ffffffffffffffffffffffffffffffffffffffff1681526020018473ffffffffffffffffffffffffffffffffffffffff1681526020018381526020018273ffffffffffffffffffffffffffffffffffffffff16815250600260008981526020019081526020016000206000820151816000015560208201518160010160006101000a81548173ffffffffffffffffffffffffffffffffffffffff021916908373ffffffffffffffffffffffffffffffffffffffff1602179055506040820151816002015560608201518160030160006101000a81548173ffffffffffffffffffffffffffffffffffffffff021916908373ffffffffffffffffffffffffffffffffffffffff16021790555060808201518160040160006101000a81548173ffffffffffffffffffffffffffffffffffffffff021916908373ffffffffffffffffffffffffffffffffffffffff16021790555060a0820151816005015560c08201518160060160006101000a81548173ffffffffffffffffffffffffffffffffffffffff021916908373ffffffffffffffffffffffffffffffffffffffff1602179055509050508473ffffffffffffffffffffffffffffffffffffffff166323b872dd8530896040518463ffffffff1660e01b8152600401610c1b939291906115b3565b600060405180830381600087803b158015610c3557600080fd5b505af1158015610c49573d6000803e3d6000fd5b50505050858573ffffffffffffffffffffffffffffffffffffffff16887f8a0b40339b6613b3d35d99f3cec1346b9b2b69712693b2e50dd212d0334317f087878787604051610c9b94939291906115ea565b60405180910390a450505050505050565b6040518060e0016040528060008152602001600073ffffffffffffffffffffffffffffffffffffffff16815260200160008152602001600073ffffffffffffffffffffffffffffffffffffffff168152602001600073ffffffffffffffffffffffffffffffffffffffff16815260200160008152602001600073ffffffffffffffffffffffffffffffffffffffff1681525090565b600080fd5b6000819050919050565b610d5981610d46565b8114610d6457600080fd5b50565b600081359050610d7681610d50565b92915050565b600060208284031215610d9257610d91610d41565b5b6000610da084828501610d67565b91505092915050565b600081519050919050565b600082825260208201905092915050565b6000819050602082019050919050565b610dde81610d46565b82525050565b6000610df08383610dd5565b60208301905092915050565b6000602082019050919050565b6000610e1482610da9565b610e1e8185610db4565b9350610e2983610dc5565b8060005b83811015610e5a578151610e418882610de4565b9750610e4c83610dfc565b925050600181019050610e2d565b5085935050505092915050565b60006020820190508181036000830152610e818184610e09565b905092915050565b600073ffffffffffffffffffffffffffffffffffffffff82169050919050565b6000610eb482610e89565b9050919050565b610ec481610ea9565b8114610ecf57600080fd5b50565b600081359050610ee181610ebb565b92915050565b600080600060608486031215610f0057610eff610d41565b5b6000610f0e86828701610d67565b9350506020610f1f86828701610ed2565b9250506040610f3086828701610d67565b9150509250925092565b610f4381610d46565b82525050565b6000602082019050610f5e6000830184610f3a565b92915050565b60008060008060808587031215610f7e57610f7d610d41565b5b6000610f8c87828801610d67565b9450506020610f9d87828801610ed2565b9350506040610fae87828801610d67565b9250506060610fbf87828801610ed2565b91505092959194509250565b610fd481610ea9565b82525050565b6000610fe582610e89565b9050919050565b610ff581610fda565b82525050565b60e0820160008201516110116000850182610dd5565b5060208201516110246020850182610fcb565b5060408201516110376040850182610dd5565b50606082015161104a6060850182610fec565b50608082015161105d6080850182610fec565b5060a082015161107060a0850182610dd5565b5060c082015161108360c0850182610fcb565b50505050565b600060e08201905061109e6000830184610ffb565b92915050565b6110ad81610ea9565b82525050565b60006060820190506110c860008301866110a4565b6110d560208301856110a4565b6110e26040830184610f3a565b949350505050565b60008115159050919050565b6110ff816110ea565b811461110a57600080fd5b50565b60008151905061111c816110f6565b92915050565b60006020828403121561113857611137610d41565b5b60006111468482850161110d565b91505092915050565b600082825260208201905092915050565b7f4661696c656420746f207472616e7366657220455243323020746f6b656e7300600082015250565b6000611196601f8361114f565b91506111a182611160565b602082019050919050565b600060208201905081810360008301526111c581611189565b9050919050565b7f496e636f72726563742076616c75652073656e7420666f72204e46542070757260008201527f6368617365000000000000000000000000000000000000000000000000000000602082015250565b600061122860258361114f565b9150611233826111cc565b604082019050919050565b600060208201905081810360008301526112578161121b565b9050919050565b7f57726f6e672066756e6374696f6e000000000000000000000000000000000000600082015250565b6000611294600e8361114f565b915061129f8261125e565b602082019050919050565b600060208201905081810360008301526112c381611287565b9050919050565b7f4e487b7100000000000000000000000000000000000000000000000000000000600052604160045260246000fd5b7f4e487b7100000000000000000000000000000000000000000000000000000000600052601160045260246000fd5b600061133382610d46565b915061133e83610d46565b9250828203905081811115611356576113556112f9565b5b92915050565b7f4e487b7100000000000000000000000000000000000000000000000000000000600052603260045260246000fd5b600061139682610d46565b91507fffffffffffffffffffffffffffffffffffffffffffffffffffffffffffffffff82036113c8576113c76112f9565b5b600182019050919050565b7f4c697374207072696365206d7573742062652067726561746572207468616e2060008201527f3000000000000000000000000000000000000000000000000000000000000000602082015250565b600061142f60218361114f565b915061143a826113d3565b604082019050919050565b6000602082019050818103600083015261145e81611422565b9050919050565b6000819050919050565b600061148a61148561148084610e89565b611465565b610e89565b9050919050565b600061149c8261146f565b9050919050565b60006114ae82611491565b9050919050565b6114be816114a3565b82525050565b60006040820190506114d960008301856114b5565b6114e66020830184610f3a565b9392505050565b7f4661696c656420746f207472616e7366657220455243323020746f6b656e732060008201527f746f2073656c6c65720000000000000000000000000000000000000000000000602082015250565b600061154960298361114f565b9150611554826114ed565b604082019050919050565b600060208201905081810360008301526115788161153c565b9050919050565b600061158a82610d46565b915061159583610d46565b92508282019050808211156115ad576115ac6112f9565b5b92915050565b60006060820190506115c860008301866114b5565b6115d560208301856110a4565b6115e26040830184610f3a565b949350505050565b60006080820190506115ff60008301876114b5565b61160c60208301866114b5565b6116196040830185610f3a565b61162660608301846110a4565b9594505050505056fea2646970667358221220852b03451b6c7a67699c39fb778d70f9e8ea69035389c1649489a33d7bc8ff7664736f6c63430008140033",
  "linkReferences": {},
  "deployedLinkReferences": {}
}